:10000000758007790375903F75B04F9000BD7D01F5
:10001000E58013500813501513502380F3FCE99426
:1000200001600719114211C780E6EC80E3FCE9C3C7
:100030009409600709114911C780D5EC80D211C716
:10004000800E74099993F5B022740A9993F5B02241
:1000500075900675B03FE580135008135015135086
:100060002380F3FCED940160071D118611C780E623
:10007000EC80E3FCEDC3940960070D118D11C7807E
:10008000D5EC80D2800E74099D93F59022740A9D60
:1000900093F59022D2A0C2A19000BD740999F9E90C
:1000A000FA93F5B0E9311811A97400F5F0E5F0788C
:1000B0000A11F8312F18E86048E5F080F46F7F07E7
:1000C0007D6D664F5B063F7FFA11E0DFFC7FFA1122
:1000D000E0DFFC7FFA11E0DFFC7FFA11E0DFFC22B9
:1000E000758901758CFC758A18D28C308DFDC28C97
:1000F000C28D22B2A0B2A12293F590E5F004F5F0F2
:0901000022F5F009E993F5B0E9DC
:1001090094096004E5F08098EAF911F3311822FBAB
:1001190093F5B0740993F590312FEB940870D96079
:0D012900012275B03F22ED11C71470FB22BA
:00000001FF
